{
  "_format": "hh-sol-artifact-1",
  "contractName": "TokenVestingOptimized",
  "sourceName": "contracts/TokenVestingOptimized.sol",
  "abi": [
    {
      "inputs": [],
      "stateMutability": "nonpayable",
      "type": "constructor"
    },
    {
      "inputs": [],
      "name": "EnforcedPause",
      "type": "error"
    },
    {
      "inputs": [],
      "name": "ExpectedPause",
      "type": "error"
    },
    {
      "inputs": [
        {
          "internalType": "address",
          "name": "owner",
          "type": "address"
        }
      ],
      "name": "OwnableInvalidOwner",
      "type": "error"
    },
    {
      "inputs": [
        {
          "internalType": "address",
          "name": "account",
          "type": "address"
        }
      ],
      "name": "OwnableUnauthorizedAccount",
      "type": "error"
    },
    {
      "inputs": [],
      "name": "ReentrancyGuardReentrantCall",
      "type": "error"
    },
    {
      "inputs": [
        {
          "internalType": "address",
          "name": "token",
          "type": "address"
        }
      ],
      "name": "SafeERC20FailedOperation",
      "type": "error"
    },
    {
      "anonymous": false,
      "inputs": [
        {
          "indexed": true,
          "internalType": "bytes32",
          "name": "vestingId",
          "type": "bytes32"
        },
        {
          "indexed": true,
          "internalType": "address",
          "name": "oldBeneficiary",
          "type": "address"
        },
        {
          "indexed": true,
          "internalType": "address",
          "name": "newBeneficiary",
          "type": "address"
        }
      ],
      "name": "BeneficiaryChanged",
      "type": "event"
    },
    {
      "anonymous": false,
      "inputs": [
        {
          "indexed": true,
          "internalType": "address",
          "name": "previousOwner",
          "type": "address"
        },
        {
          "indexed": true,
          "internalType": "address",
          "name": "newOwner",
          "type": "address"
        }
      ],
      "name": "OwnershipTransferred",
      "type": "event"
    },
    {
      "anonymous": false,
      "inputs": [
        {
          "indexed": false,
          "internalType": "address",
          "name": "account",
          "type": "address"
        }
      ],
      "name": "Paused",
      "type": "event"
    },
    {
      "anonymous": false,
      "inputs": [
        {
          "indexed": true,
          "internalType": "bytes32",
          "name": "vestingId",
          "type": "bytes32"
        },
        {
          "indexed": true,
          "internalType": "address",
          "name": "beneficiary",
          "type": "address"
        },
        {
          "indexed": true,
          "internalType": "address",
          "name": "token",
          "type": "address"
        },
        {
          "indexed": false,
          "internalType": "uint256",
          "name": "amount",
          "type": "uint256"
        }
      ],
      "name": "TokensReleased",
      "type": "event"
    },
    {
      "anonymous": false,
      "inputs": [
        {
          "indexed": false,
          "internalType": "address",
          "name": "account",
          "type": "address"
        }
      ],
      "name": "Unpaused",
      "type": "event"
    },
    {
      "anonymous": false,
      "inputs": [
        {
          "indexed": true,
          "internalType": "bytes32",
          "name": "vestingId",
          "type": "bytes32"
        },
        {
          "indexed": true,
          "internalType": "address",
          "name": "token",
          "type": "address"
        },
        {
          "indexed": false,
          "internalType": "uint256",
          "name": "refundAmount",
          "type": "uint256"
        }
      ],
      "name": "VestingRevoked",
      "type": "event"
    },
    {
      "anonymous": false,
      "inputs": [
        {
          "indexed": true,
          "internalType": "bytes32",
          "name": "vestingId",
          "type": "bytes32"
        },
        {
          "indexed": true,
          "internalType": "address",
          "name": "beneficiary",
          "type": "address"
        },
        {
          "indexed": true,
          "internalType": "address",
          "name": "token",
          "type": "address"
        },
        {
          "indexed": false,
          "internalType": "uint256",
          "name": "amount",
          "type": "uint256"
        },
        {
          "indexed": false,
          "internalType": "uint256",
          "name": "startTime",
          "type": "uint256"
        },
        {
          "indexed": false,
          "internalType": "uint256",
          "name": "cliff",
          "type": "uint256"
        },
        {
          "indexed": false,
          "internalType": "uint256",
          "name": "duration",
          "type": "uint256"
        }
      ],
      "name": "VestingScheduleCreated",
      "type": "event"
    },
    {
      "inputs": [
        {
          "internalType": "address[]",
          "name": "beneficiaries",
          "type": "address[]"
        },
        {
          "internalType": "address",
          "name": "token",
          "type": "address"
        },
        {
          "internalType": "uint256[]",
          "name": "amounts",
          "type": "uint256[]"
        },
        {
          "internalType": "uint256",
          "name": "startTime",
          "type": "uint256"
        },
        {
          "internalType": "uint256",
          "name": "cliff",
          "type": "uint256"
        },
        {
          "internalType": "uint256",
          "name": "duration",
          "type": "uint256"
        },
        {
          "internalType": "bool",
          "name": "revocable",
          "type": "bool"
        }
      ],
      "name": "batchCreateVestingSchedules",
      "outputs": [
        {
          "internalType": "bytes32[]",
          "name": "",
          "type": "bytes32[]"
        }
      ],
      "stateMutability": "nonpayable",
      "type": "function"
    },
    {
      "inputs": [
        {
          "internalType": "address",
          "name": "",
          "type": "address"
        },
        {
          "internalType": "uint256",
          "name": "",
          "type": "uint256"
        }
      ],
      "name": "beneficiarySchedules",
      "outputs": [
        {
          "internalType": "bytes32",
          "name": "",
          "type": "bytes32"
        }
      ],
      "stateMutability": "view",
      "type": "function"
    },
    {
      "inputs": [
        {
          "internalType": "bytes32",
          "name": "vestingId",
          "type": "bytes32"
        },
        {
          "internalType": "address",
          "name": "newBeneficiary",
          "type": "address"
        }
      ],
      "name": "changeBeneficiary",
      "outputs": [],
      "stateMutability": "nonpayable",
      "type": "function"
    },
    {
      "inputs": [
        {
          "internalType": "bytes32",
          "name": "vestingId",
          "type": "bytes32"
        }
      ],
      "name": "computeReleasableAmount",
      "outputs": [
        {
          "internalType": "uint256",
          "name": "",
          "type": "uint256"
        }
      ],
      "stateMutability": "view",
      "type": "function"
    },
    {
      "inputs": [
        {
          "internalType": "address",
          "name": "beneficiary",
          "type": "address"
        },
        {
          "internalType": "address",
          "name": "token",
          "type": "address"
        },
        {
          "internalType": "uint256",
          "name": "amount",
          "type": "uint256"
        },
        {
          "internalType": "uint256",
          "name": "startTime",
          "type": "uint256"
        },
        {
          "internalType": "uint256",
          "name": "cliff",
          "type": "uint256"
        },
        {
          "internalType": "uint256",
          "name": "duration",
          "type": "uint256"
        },
        {
          "internalType": "bool",
          "name": "revocable",
          "type": "bool"
        }
      ],
      "name": "createVestingSchedule",
      "outputs": [
        {
          "internalType": "bytes32",
          "name": "",
          "type": "bytes32"
        }
      ],
      "stateMutability": "nonpayable",
      "type": "function"
    },
    {
      "inputs": [
        {
          "internalType": "address",
          "name": "token",
          "type": "address"
        },
        {
          "internalType": "uint256",
          "name": "amount",
          "type": "uint256"
        }
      ],
      "name": "emergencyWithdraw",
      "outputs": [],
      "stateMutability": "nonpayable",
      "type": "function"
    },
    {
      "inputs": [
        {
          "internalType": "address",
          "name": "beneficiary",
          "type": "address"
        }
      ],
      "name": "getBeneficiarySchedules",
      "outputs": [
        {
          "internalType": "bytes32[]",
          "name": "",
          "type": "bytes32[]"
        }
      ],
      "stateMutability": "view",
      "type": "function"
    },
    {
      "inputs": [
        {
          "internalType": "bytes32",
          "name": "vestingId",
          "type": "bytes32"
        }
      ],
      "name": "getVestingInfo",
      "outputs": [
        {
          "internalType": "address",
          "name": "beneficiary",
          "type": "address"
        },
        {
          "internalType": "address",
          "name": "token",
          "type": "address"
        },
        {
          "internalType": "uint256",
          "name": "totalAmount",
          "type": "uint256"
        },
        {
          "internalType": "uint256",
          "name": "released",
          "type": "uint256"
        },
        {
          "internalType": "uint256",
          "name": "releasable",
          "type": "uint256"
        },
        {
          "internalType": "uint256",
          "name": "vested",
          "type": "uint256"
        },
        {
          "internalType": "uint256",
          "name": "startTime",
          "type": "uint256"
        },
        {
          "internalType": "uint256",
          "name": "cliff",
          "type": "uint256"
        },
        {
          "internalType": "uint256",
          "name": "duration",
          "type": "uint256"
        },
        {
          "internalType": "bool",
          "name": "revocable",
          "type": "bool"
        },
        {
          "internalType": "bool",
          "name": "revoked",
          "type": "bool"
        }
      ],
      "stateMutability": "view",
      "type": "function"
    },
    {
      "inputs": [
        {
          "internalType": "bytes32",
          "name": "vestingId",
          "type": "bytes32"
        }
      ],
      "name": "getVestingSchedule",
      "outputs": [
        {
          "internalType": "address",
          "name": "beneficiary",
          "type": "address"
        },
        {
          "internalType": "address",
          "name": "token",
          "type": "address"
        },
        {
          "internalType": "uint256",
          "name": "totalAmount",
          "type": "uint256"
        },
        {
          "internalType": "uint256",
          "name": "released",
          "type": "uint256"
        },
        {
          "internalType": "uint256",
          "name": "startTime",
          "type": "uint256"
        },
        {
          "internalType": "uint256",
          "name": "cliff",
          "type": "uint256"
        },
        {
          "internalType": "uint256",
          "name": "duration",
          "type": "uint256"
        },
        {
          "internalType": "bool",
          "name": "revocable",
          "type": "bool"
        },
        {
          "internalType": "bool",
          "name": "revoked",
          "type": "bool"
        }
      ],
      "stateMutability": "view",
      "type": "function"
    },
    {
      "inputs": [],
      "name": "owner",
      "outputs": [
        {
          "internalType": "address",
          "name": "",
          "type": "address"
        }
      ],
      "stateMutability": "view",
      "type": "function"
    },
    {
      "inputs": [],
      "name": "pause",
      "outputs": [],
      "stateMutability": "nonpayable",
      "type": "function"
    },
    {
      "inputs": [],
      "name": "paused",
      "outputs": [
        {
          "internalType": "bool",
          "name": "",
          "type": "bool"
        }
      ],
      "stateMutability": "view",
      "type": "function"
    },
    {
      "inputs": [
        {
          "internalType": "bytes32",
          "name": "vestingId",
          "type": "bytes32"
        }
      ],
      "name": "release",
      "outputs": [],
      "stateMutability": "nonpayable",
      "type": "function"
    },
    {
      "inputs": [],
      "name": "renounceOwnership",
      "outputs": [],
      "stateMutability": "nonpayable",
      "type": "function"
    },
    {
      "inputs": [
        {
          "internalType": "bytes32",
          "name": "vestingId",
          "type": "bytes32"
        }
      ],
      "name": "revoke",
      "outputs": [],
      "stateMutability": "nonpayable",
      "type": "function"
    },
    {
      "inputs": [
        {
          "internalType": "address",
          "name": "",
          "type": "address"
        }
      ],
      "name": "totalLockedTokens",
      "outputs": [
        {
          "internalType": "uint256",
          "name": "",
          "type": "uint256"
        }
      ],
      "stateMutability": "view",
      "type": "function"
    },
    {
      "inputs": [
        {
          "internalType": "address",
          "name": "newOwner",
          "type": "address"
        }
      ],
      "name": "transferOwnership",
      "outputs": [],
      "stateMutability": "nonpayable",
      "type": "function"
    },
    {
      "inputs": [],
      "name": "unpause",
      "outputs": [],
      "stateMutability": "nonpayable",
      "type": "function"
    },
    {
      "inputs": [
        {
          "internalType": "bytes32",
          "name": "",
          "type": "bytes32"
        }
      ],
      "name": "vestingSchedules",
      "outputs": [
        {
          "internalType": "address",
          "name": "beneficiary",
          "type": "address"
        },
        {
          "internalType": "address",
          "name": "token",
          "type": "address"
        },
        {
          "internalType": "uint256",
          "name": "totalAmount",
          "type": "uint256"
        },
        {
          "internalType": "uint256",
          "name": "released",
          "type": "uint256"
        },
        {
          "internalType": "uint256",
          "name": "startTime",
          "type": "uint256"
        },
        {
          "internalType": "uint256",
          "name": "cliff",
          "type": "uint256"
        },
        {
          "internalType": "uint256",
          "name": "duration",
          "type": "uint256"
        },
        {
          "internalType": "bool",
          "name": "revocable",
          "type": "bool"
        },
        {
          "internalType": "bool",
          "name": "revoked",
          "type": "bool"
        }
      ],
      "stateMutability": "view",
      "type": "function"
    },
    {
      "inputs": [],
      "name": "vestingSchedulesCount",
      "outputs": [
        {
          "internalType": "uint256",
          "name": "",
          "type": "uint256"
        }
      ],
      "stateMutability": "view",
      "type": "function"
    }
  ],
  "bytecode": "0x608060405234801561001057600080fd5b50338061003757604051631e4fbdf760e01b81526000600482015260240160405180910390fd5b6100408161004a565b506001805561009a565b600080546001600160a01b038381166001600160a01b0319831681178455604051919092169283917f8be0079c531659141344cd1fd0a4f28419497f9722a3daafe3b4186f6b6457e09190a35050565b612005806100a96000396000f3fe608060405234801561001057600080fd5b506004361061012c5760003560e01c80638da5cb5b116100ad578063b75c7dc611610071578063b75c7dc614610419578063bab2aed21461042c578063c741d92f1461043f578063ea1bb3d514610448578063f2fde38b1461045b57600080fd5b80638da5cb5b146102ff5780638fdd511e1461031a57806395ccea671461032d5780639ef346b414610340578063b1b3b7fb146103f957600080fd5b80636633fc7a116100f45780636633fc7a146102a957806367d42a8b146102c9578063715018a6146102dc5780637386d3ad146102e45780638456cb59146102f757600080fd5b80633f4ba83a1461013157806346ca42411461013b5780635c975abb146101615780636041788714610177578063661b743d14610234575b600080fd5b61013961046e565b005b61014e610149366004611c49565b610480565b6040519081526020015b60405180910390f35b60025460ff166040519015158152602001610158565b6101e1610185366004611c73565b6003602081905260009182526040909120805460018201546002830154938301546004840154600585015460068601546007909601546001600160a01b0395861697959094169592939192909160ff8082169161010090041689565b604080516001600160a01b039a8b1681529990981660208a0152968801959095526060870193909352608086019190915260a085015260c0840152151560e0830152151561010082015261012001610158565b610247610242366004611c73565b6104b1565b604080516001600160a01b039c8d1681529b909a1660208c0152988a01979097526060890195909552608088019390935260a087019190915260c086015260e08501526101008401521515610120830152151561014082015261016001610158565b6102bc6102b7366004611ce8565b6105cc565b6040516101589190611d97565b6101396102d7366004611c73565b610b1f565b610139610d85565b61014e6102f2366004611ddb565b610d97565b6101396111b3565b6000546040516001600160a01b039091168152602001610158565b6102bc610328366004611e45565b6111c3565b61013961033b366004611c49565b61122f565b6101e161034e366004611c73565b60009081526003602081815260409283902083516101208101855281546001600160a01b03908116808352600184015490911693820184905260028301549582018690529382015460608201819052600483015460808301819052600584015460a08401819052600685015460c0850181905260079095015460ff808216151560e0870181905261010092839004909116151591909501819052969895979692959194909390929091565b61014e610407366004611e45565b60066020526000908152604090205481565b610139610427366004611c73565b61137e565b61013961043a366004611e60565b6115e6565b61014e60055481565b61014e610456366004611c73565b611766565b610139610469366004611e45565b611810565b61047661184b565b61047e611878565b565b6004602052816000526040600020818154811061049c57600080fd5b90600052602060002001600091509150505481565b600081815260036020818152604080842081516101208101835281546001600160a01b0390811682526001830154169381019390935260028101549183019190915291820154606082015260048201546080820152600582015460a0820152600682015460c082015260079091015460ff808216151560e084015261010091829004161515908201819052829182918291829182918291829182918291829182906105645761055f826118ca565b610567565b60005b825160208401516040850151606086015193945091929091908461058b8183611ea2565b87608001518860a001518960c001518a60e001518b61010001519c509c509c509c509c509c509c509c509c509c509c50505091939597999b90929496989a50565b60606105d661184b565b6105de611958565b8886146106245760405162461bcd60e51b815260206004820152600f60248201526e098cadccee8d040dad2e6dac2e8c6d608b1b60448201526064015b60405180910390fd5b886106605760405162461bcd60e51b815260206004820152600c60248201526b456d7074792061727261797360a01b604482015260640161061b565b6001600160a01b0388166106a65760405162461bcd60e51b815260206004820152600d60248201526c24b73b30b634b2103a37b5b2b760991b604482015260640161061b565b600083116106e65760405162461bcd60e51b815260206004820152600d60248201526c2d32b93790323ab930ba34b7b760991b604482015260640161061b565b828411156107295760405162461bcd60e51b815260206004820152601060248201526f21b634b333101f10323ab930ba34b7b760811b604482015260640161061b565b60008967ffffffffffffffff81111561074457610744611ebb565b60405190808252806020026020018201604052801561076d578160200160208202803683370190505b5090506000805b8b8110156107aa5789898281811061078e5761078e611ed1565b90506020020135826107a09190611ea2565b9150600101610774565b506107c06001600160a01b038b1633308461197c565b6001600160a01b038a16600090815260066020526040812080548392906107e8908490611ea2565b90915550600090505b8b811015610b0e5760008d8d8381811061080d5761080d611ed1565b90506020020160208101906108229190611e45565b905060008b8b8481811061083857610838611ed1565b60200291909101359150506001600160a01b0382166108695760405162461bcd60e51b815260040161061b90611ee7565b600081116108a75760405162461bcd60e51b815260206004820152600b60248201526a16995c9bc8185b5bdd5b9d60aa1b604482015260640161061b565b6000828e838d426005546040516020016108c696959493929190611f0d565b604051602081830303815290604052805190602001209050604051806101200160405280846001600160a01b031681526020018f6001600160a01b03168152602001838152602001600081526020018c81526020018b81526020018a81526020018915158152602001600015158152506003600083815260200190815260200160002060008201518160000160006101000a8154816001600160a01b0302191690836001600160a01b0316021790555060208201518160010160006101000a8154816001600160a01b0302191690836001600160a01b0316021790555060408201518160020155606082015181600301556080820151816004015560a0820151816005015560c0820151816006015560e08201518160070160006101000a81548160ff0219169083151502179055506101008201518160070160016101000a81548160ff02191690831515021790555090505060046000846001600160a01b03166001600160a01b0316815260200190815260200160002081908060018154018082558091505060019003906000526020600020016000909190919091505580868581518110610a7857610a78611ed1565b60200260200101818152505060056000815480929190600101919050555083806001019450508d6001600160a01b0316836001600160a01b0316827f5ea23a43c14ab0a834c8dccee3dfed101b39a4cbcfd6f19ced7568f86126463b858f8f8f604051610afe949392919093845260208401929092526040830152606082015260800190565b60405180910390a45050506107f1565b50909b9a5050505050505050505050565b610b276119e3565b610b2f611958565b600081815260036020526040902080546001600160a01b03163314610b885760405162461bcd60e51b815260206004820152600f60248201526e4e6f742062656e656669636961727960881b604482015260640161061b565b6007810154610100900460ff1615610bcc5760405162461bcd60e51b815260206004820152600760248201526614995d9bdad95960ca1b604482015260640161061b565b80546001600160a01b0316610bf35760405162461bcd60e51b815260040161061b90611f4d565b604080516101208101825282546001600160a01b03908116825260018401541660208201526002830154918101919091526003820154606082015260048201546080820152600582015460a0820152600682015460c0820152600782015460ff808216151560e08401526101009182900416151590820152600090610c77906118ca565b905060008111610cbe5760405162461bcd60e51b81526020600482015260126024820152714e6f7468696e6720746f2072656c6561736560701b604482015260640161061b565b60018201546003830180546001600160a01b0390921691839190600090610ce6908490611ea2565b90915550506001600160a01b03811660009081526006602052604081208054849290610d13908490611f77565b90915550508254610d31906001600160a01b03838116911684611a0d565b82546040518381526001600160a01b0383811692169086907f95d209edc2dd51498eb0f9b4c7fb85223de3a46f6a83e0aba5d2d0e9a0d720779060200160405180910390a4505050610d8260018055565b50565b610d8d61184b565b61047e6000611a43565b6000610da161184b565b610da9611958565b6001600160a01b038816610dcf5760405162461bcd60e51b815260040161061b90611ee7565b6001600160a01b038716610e155760405162461bcd60e51b815260206004820152600d60248201526c24b73b30b634b2103a37b5b2b760991b604482015260640161061b565b60008611610e535760405162461bcd60e51b815260206004820152600b60248201526a16995c9bc8185b5bdd5b9d60aa1b604482015260640161061b565b60008311610e935760405162461bcd60e51b815260206004820152600d60248201526c2d32b93790323ab930ba34b7b760991b604482015260640161061b565b82841115610ed65760405162461bcd60e51b815260206004820152601060248201526f21b634b333101f10323ab930ba34b7b760811b604482015260640161061b565b60008888888842600554604051602001610ef596959493929190611f0d565b60408051601f198184030181529181528151602092830120600081815260039093529120549091506001600160a01b031615610f625760405162461bcd60e51b815260206004820152600c60248201526b24a21031b7b63634b9b4b7b760a11b604482015260640161061b565b610f776001600160a01b03891633308a61197c565b6001600160a01b03881660009081526006602052604081208054899290610f9f908490611ea2565b925050819055506040518061012001604052808a6001600160a01b03168152602001896001600160a01b03168152602001888152602001600081526020018781526020018681526020018581526020018415158152602001600015158152506003600083815260200190815260200160002060008201518160000160006101000a8154816001600160a01b0302191690836001600160a01b0316021790555060208201518160010160006101000a8154816001600160a01b0302191690836001600160a01b0316021790555060408201518160020155606082015181600301556080820151816004015560a0820151816005015560c0820151816006015560e08201518160070160006101000a81548160ff0219169083151502179055506101008201518160070160016101000a81548160ff021916908315150217905550905050600460008a6001600160a01b03166001600160a01b03168152602001908152602001600020819080600181540180825580915050600190039060005260206000200160009091909190915055600560008154809291906001019190505550876001600160a01b0316896001600160a01b0316827f5ea23a43c14ab0a834c8dccee3dfed101b39a4cbcfd6f19ced7568f86126463b8a8a8a8a60405161119f949392919093845260208401929092526040830152606082015260800190565b60405180910390a498975050505050505050565b6111bb61184b565b61047e611a93565b6001600160a01b03811660009081526004602090815260409182902080548351818402810184019094528084526060939283018282801561122357602002820191906000526020600020905b81548152602001906001019080831161120f575b50505050509050919050565b61123761184b565b6040516370a0823160e01b81523060048201526000906001600160a01b038416906370a0823190602401602060405180830381865afa15801561127e573d6000803e3d6000fd5b505050506040513d601f19601f820116820180604052508101906112a29190611f8a565b6001600160a01b038416600090815260066020526040902054909150808210156113055760405162461bcd60e51b8152602060048201526014602482015273496e73756666696369656e742062616c616e636560601b604482015260640161061b565b61130f8183611f77565b8311156113525760405162461bcd60e51b81526020600482015260116024820152704578636565647320617661696c61626c6560781b604482015260640161061b565b6113786113676000546001600160a01b031690565b6001600160a01b0386169085611a0d565b50505050565b61138661184b565b61138e6119e3565b6000818152600360205260409020600781015460ff166113e05760405162461bcd60e51b815260206004820152600d60248201526c4e6f74207265766f6361626c6560981b604482015260640161061b565b6007810154610100900460ff161561142c5760405162461bcd60e51b815260206004820152600f60248201526e105b1c9958591e481c995d9bdad959608a1b604482015260640161061b565b80546001600160a01b03166114535760405162461bcd60e51b815260040161061b90611f4d565b6001810154815460408051610120810182526001600160a01b0392831680825292909316602084018190526002850154918401919091526003840154606084015260048401546080840152600584015460a0840152600684015460c0840152600784015460ff808216151560e08601526101009182900416151590840152916000906114de906118ca565b9050801561151457808460030160008282546114fa9190611ea2565b9091555061151490506001600160a01b0384168383611a0d565b60008460030154856002015461152a9190611f77565b90508015611580576001600160a01b0384166000908152600660205260408120805483929061155a908490611f77565b9091555050600054611580906001600160a01b03166001600160a01b0386169083611a0d565b60078501805461ff0019166101001790556040516001600160a01b0385169087907f9f6990fedd76aa384441d613ac4a0b0283e170692cedbe183d00c41c22ba9832906115d09085815260200190565b60405180910390a35050505050610d8260018055565b6115ee61184b565b6001600160a01b0381166116145760405162461bcd60e51b815260040161061b90611ee7565b60008281526003602052604090206007810154610100900460ff16156116665760405162461bcd60e51b815260206004820152600760248201526614995d9bdad95960ca1b604482015260640161061b565b80546001600160a01b03168061168e5760405162461bcd60e51b815260040161061b90611f4d565b826001600160a01b0316816001600160a01b0316036116e25760405162461bcd60e51b815260206004820152601060248201526f53616d652062656e656669636961727960801b604482015260640161061b565b81546001600160a01b0319166001600160a01b0384161782556117058185611ad0565b6001600160a01b038084166000818152600460209081526040808320805460018101825590845291832090910188905551919284169187917ff9c14f457f08a91dded77f42cb81862add221a1a9989e3ba006a62c645f9286691a450505050565b600081815260036020818152604080842081516101208101835281546001600160a01b0390811682526001830154169381019390935260028101549183019190915291820154606082015260048201546080820152600582015460a0820152600682015460c082015260079091015460ff808216151560e08401526101009182900416158015918301919091526118005750600092915050565b611809816118ca565b9392505050565b61181861184b565b6001600160a01b03811661184257604051631e4fbdf760e01b81526000600482015260240161061b565b610d8281611a43565b6000546001600160a01b0316331461047e5760405163118cdaa760e01b815233600482015260240161061b565b611880611b99565b6002805460ff191690557f5db9ee0a495bf2e6ff9c91a7834c1ba4fdd244a5e8aa4e537bd38aeae4b073aa335b6040516001600160a01b03909116815260200160405180910390a1565b60a0810151608082015160009142916118e39190611ea2565b8110156118f35750600092915050565b8260c0015183608001516119079190611ea2565b811061191e57505060608101516040909101510390565b600083608001518203905060008460c00151828660400151028161194457611944611fa3565b049050846060015181039350505050919050565b60025460ff161561047e5760405163d93c066560e01b815260040160405180910390fd5b6040516001600160a01b0384811660248301528381166044830152606482018390526113789186918216906323b872dd906084015b604051602081830303815290604052915060e01b6020820180516001600160e01b038381831617835250505050611bbc565b600260015403611a0657604051633ee5aeb560e01b815260040160405180910390fd5b6002600155565b6040516001600160a01b03838116602483015260448201839052611a3e91859182169063a9059cbb906064016119b1565b505050565b600080546001600160a01b038381166001600160a01b0319831681178455604051919092169283917f8be0079c531659141344cd1fd0a4f28419497f9722a3daafe3b4186f6b6457e09190a35050565b611a9b611958565b6002805460ff191660011790557f62e78cea01bee320cd4e420270b5ea74000d11b0c9f74754ebdbfc544b05a2586118ad3390565b6001600160a01b0382166000908152600460205260408120805490915b81811015611b925783838281548110611b0857611b08611ed1565b906000526020600020015403611b8a5782611b24600184611f77565b81548110611b3457611b34611ed1565b9060005260206000200154838281548110611b5157611b51611ed1565b906000526020600020018190555082805480611b6f57611b6f611fb9565b60019003818190600052602060002001600090559055611b92565b600101611aed565b5050505050565b60025460ff1661047e57604051638dfc202b60e01b815260040160405180910390fd5b600080602060008451602086016000885af180611bdf576040513d6000823e3d81fd5b50506000513d91508115611bf7578060011415611c04565b6001600160a01b0384163b155b1561137857604051635274afe760e01b81526001600160a01b038516600482015260240161061b565b80356001600160a01b0381168114611c4457600080fd5b919050565b60008060408385031215611c5c57600080fd5b611c6583611c2d565b946020939093013593505050565b600060208284031215611c8557600080fd5b5035919050565b60008083601f840112611c9e57600080fd5b50813567ffffffffffffffff811115611cb657600080fd5b6020830191508360208260051b8501011115611cd157600080fd5b9250929050565b80358015158114611c4457600080fd5b600080600080600080600080600060e08a8c031215611d0657600080fd5b893567ffffffffffffffff80821115611d1e57600080fd5b611d2a8d838e01611c8c565b909b509950899150611d3e60208d01611c2d565b985060408c0135915080821115611d5457600080fd5b50611d618c828d01611c8c565b90975095505060608a0135935060808a0135925060a08a01359150611d8860c08b01611cd8565b90509295985092959850929598565b6020808252825182820181905260009190848201906040850190845b81811015611dcf57835183529284019291840191600101611db3565b50909695505050505050565b600080600080600080600060e0888a031215611df657600080fd5b611dff88611c2d565b9650611e0d60208901611c2d565b955060408801359450606088013593506080880135925060a08801359150611e3760c08901611cd8565b905092959891949750929550565b600060208284031215611e5757600080fd5b61180982611c2d565b60008060408385031215611e7357600080fd5b82359150611e8360208401611c2d565b90509250929050565b634e487b7160e01b600052601160045260246000fd5b80820180821115611eb557611eb5611e8c565b92915050565b634e487b7160e01b600052604160045260246000fd5b634e487b7160e01b600052603260045260246000fd5b6020808252600c908201526b5a65726f206164647265737360a01b604082015260600190565b6bffffffffffffffffffffffff19606097881b811682529590961b9094166014860152602885019290925260488401526068830152608882015260a80190565b60208082526010908201526f496e76616c6964207363686564756c6560801b604082015260600190565b81810381811115611eb557611eb5611e8c565b600060208284031215611f9c57600080fd5b5051919050565b634e487b7160e01b600052601260045260246000fd5b634e487b7160e01b600052603160045260246000fdfea2646970667358221220ca63a7f73f466b1ebdd4cb053de72feda3c8417f98ee8f08e9451771606dda9f64736f6c63430008140033",
  "linkReferences": {},
  "deployedLinkReferences": {}
}