{
  "_format": "hh-sol-artifact-1",
  "contractName": "TokenVesting",
  "sourceName": "contracts/TokenVesting.sol",
  "abi": [
    {
      "inputs": [],
      "stateMutability": "nonpayable",
      "type": "constructor"
    },
    {
      "inputs": [
        {
          "internalType": "address",
          "name": "owner",
          "type": "address"
        }
      ],
      "name": "OwnableInvalidOwner",
      "type": "error"
    },
    {
      "inputs": [
        {
          "internalType": "address",
          "name": "account",
          "type": "address"
        }
      ],
      "name": "OwnableUnauthorizedAccount",
      "type": "error"
    },
    {
      "inputs": [],
      "name": "ReentrancyGuardReentrantCall",
      "type": "error"
    },
    {
      "inputs": [
        {
          "internalType": "address",
          "name": "token",
          "type": "address"
        }
      ],
      "name": "SafeERC20FailedOperation",
      "type": "error"
    },
    {
      "anonymous": false,
      "inputs": [
        {
          "indexed": true,
          "internalType": "address",
          "name": "previousOwner",
          "type": "address"
        },
        {
          "indexed": true,
          "internalType": "address",
          "name": "newOwner",
          "type": "address"
        }
      ],
      "name": "OwnershipTransferred",
      "type": "event"
    },
    {
      "anonymous": false,
      "inputs": [
        {
          "indexed": true,
          "internalType": "bytes32",
          "name": "vestingId",
          "type": "bytes32"
        },
        {
          "indexed": true,
          "internalType": "address",
          "name": "beneficiary",
          "type": "address"
        },
        {
          "indexed": false,
          "internalType": "uint256",
          "name": "amount",
          "type": "uint256"
        }
      ],
      "name": "TokensReleased",
      "type": "event"
    },
    {
      "anonymous": false,
      "inputs": [
        {
          "indexed": true,
          "internalType": "bytes32",
          "name": "vestingId",
          "type": "bytes32"
        }
      ],
      "name": "VestingRevoked",
      "type": "event"
    },
    {
      "anonymous": false,
      "inputs": [
        {
          "indexed": true,
          "internalType": "bytes32",
          "name": "vestingId",
          "type": "bytes32"
        },
        {
          "indexed": true,
          "internalType": "address",
          "name": "beneficiary",
          "type": "address"
        },
        {
          "indexed": false,
          "internalType": "uint256",
          "name": "amount",
          "type": "uint256"
        },
        {
          "indexed": false,
          "internalType": "uint256",
          "name": "startTime",
          "type": "uint256"
        },
        {
          "indexed": false,
          "internalType": "uint256",
          "name": "cliff",
          "type": "uint256"
        },
        {
          "indexed": false,
          "internalType": "uint256",
          "name": "duration",
          "type": "uint256"
        }
      ],
      "name": "VestingScheduleCreated",
      "type": "event"
    },
    {
      "inputs": [
        {
          "internalType": "address",
          "name": "",
          "type": "address"
        },
        {
          "internalType": "uint256",
          "name": "",
          "type": "uint256"
        }
      ],
      "name": "beneficiarySchedules",
      "outputs": [
        {
          "internalType": "bytes32",
          "name": "",
          "type": "bytes32"
        }
      ],
      "stateMutability": "view",
      "type": "function"
    },
    {
      "inputs": [
        {
          "internalType": "bytes32",
          "name": "vestingId",
          "type": "bytes32"
        }
      ],
      "name": "computeReleasableAmount",
      "outputs": [
        {
          "internalType": "uint256",
          "name": "",
          "type": "uint256"
        }
      ],
      "stateMutability": "view",
      "type": "function"
    },
    {
      "inputs": [
        {
          "internalType": "address",
          "name": "_beneficiary",
          "type": "address"
        },
        {
          "internalType": "address",
          "name": "_token",
          "type": "address"
        },
        {
          "internalType": "uint256",
          "name": "_amount",
          "type": "uint256"
        },
        {
          "internalType": "uint256",
          "name": "_startTime",
          "type": "uint256"
        },
        {
          "internalType": "uint256",
          "name": "_cliff",
          "type": "uint256"
        },
        {
          "internalType": "uint256",
          "name": "_duration",
          "type": "uint256"
        },
        {
          "internalType": "bool",
          "name": "_revocable",
          "type": "bool"
        }
      ],
      "name": "createVestingSchedule",
      "outputs": [],
      "stateMutability": "nonpayable",
      "type": "function"
    },
    {
      "inputs": [
        {
          "internalType": "address",
          "name": "beneficiary",
          "type": "address"
        }
      ],
      "name": "getBeneficiarySchedules",
      "outputs": [
        {
          "internalType": "bytes32[]",
          "name": "",
          "type": "bytes32[]"
        }
      ],
      "stateMutability": "view",
      "type": "function"
    },
    {
      "inputs": [
        {
          "internalType": "bytes32",
          "name": "vestingId",
          "type": "bytes32"
        }
      ],
      "name": "getVestingSchedule",
      "outputs": [
        {
          "internalType": "address",
          "name": "beneficiary",
          "type": "address"
        },
        {
          "internalType": "address",
          "name": "token",
          "type": "address"
        },
        {
          "internalType": "uint256",
          "name": "totalAmount",
          "type": "uint256"
        },
        {
          "internalType": "uint256",
          "name": "released",
          "type": "uint256"
        },
        {
          "internalType": "uint256",
          "name": "startTime",
          "type": "uint256"
        },
        {
          "internalType": "uint256",
          "name": "cliff",
          "type": "uint256"
        },
        {
          "internalType": "uint256",
          "name": "duration",
          "type": "uint256"
        },
        {
          "internalType": "bool",
          "name": "revocable",
          "type": "bool"
        },
        {
          "internalType": "bool",
          "name": "revoked",
          "type": "bool"
        }
      ],
      "stateMutability": "view",
      "type": "function"
    },
    {
      "inputs": [],
      "name": "owner",
      "outputs": [
        {
          "internalType": "address",
          "name": "",
          "type": "address"
        }
      ],
      "stateMutability": "view",
      "type": "function"
    },
    {
      "inputs": [
        {
          "internalType": "bytes32",
          "name": "vestingId",
          "type": "bytes32"
        },
        {
          "internalType": "address",
          "name": "token",
          "type": "address"
        }
      ],
      "name": "release",
      "outputs": [],
      "stateMutability": "nonpayable",
      "type": "function"
    },
    {
      "inputs": [],
      "name": "renounceOwnership",
      "outputs": [],
      "stateMutability": "nonpayable",
      "type": "function"
    },
    {
      "inputs": [
        {
          "internalType": "bytes32",
          "name": "vestingId",
          "type": "bytes32"
        },
        {
          "internalType": "address",
          "name": "token",
          "type": "address"
        }
      ],
      "name": "revoke",
      "outputs": [],
      "stateMutability": "nonpayable",
      "type": "function"
    },
    {
      "inputs": [
        {
          "internalType": "address",
          "name": "newOwner",
          "type": "address"
        }
      ],
      "name": "transferOwnership",
      "outputs": [],
      "stateMutability": "nonpayable",
      "type": "function"
    },
    {
      "inputs": [
        {
          "internalType": "bytes32",
          "name": "",
          "type": "bytes32"
        }
      ],
      "name": "vestingSchedules",
      "outputs": [
        {
          "internalType": "address",
          "name": "beneficiary",
          "type": "address"
        },
        {
          "internalType": "address",
          "name": "token",
          "type": "address"
        },
        {
          "internalType": "uint256",
          "name": "totalAmount",
          "type": "uint256"
        },
        {
          "internalType": "uint256",
          "name": "released",
          "type": "uint256"
        },
        {
          "internalType": "uint256",
          "name": "startTime",
          "type": "uint256"
        },
        {
          "internalType": "uint256",
          "name": "cliff",
          "type": "uint256"
        },
        {
          "internalType": "uint256",
          "name": "duration",
          "type": "uint256"
        },
        {
          "internalType": "bool",
          "name": "revocable",
          "type": "bool"
        },
        {
          "internalType": "bool",
          "name": "revoked",
          "type": "bool"
        }
      ],
      "stateMutability": "view",
      "type": "function"
    },
    {
      "inputs": [],
      "name": "vestingSchedulesCount",
      "outputs": [
        {
          "internalType": "uint256",
          "name": "",
          "type": "uint256"
        }
      ],
      "stateMutability": "view",
      "type": "function"
    }
  ],
  "bytecode": "0x608060405234801561001057600080fd5b50338061003757604051631e4fbdf760e01b81526000600482015260240160405180910390fd5b6100408161004a565b506001805561009a565b600080546001600160a01b038381166001600160a01b0319831681178455604051919092169283917f8be0079c531659141344cd1fd0a4f28419497f9722a3daafe3b4186f6b6457e09190a35050565b6110e6806100a96000396000f3fe608060405234801561001057600080fd5b50600436106100b45760003560e01c80638fdd511e116100715780638fdd511e146101e95780639ef346b414610209578063c741d92f14610276578063ea1bb3d51461027f578063efd8871a14610292578063f2fde38b146102a557600080fd5b80631bbdcfd3146100b957806346ca4241146100ce57806360417887146100f4578063715018a6146101b35780637386d3ad146101bb5780638da5cb5b146101ce575b600080fd5b6100cc6100c7366004610edb565b6102b8565b005b6100e16100dc366004610f07565b6104d4565b6040519081526020015b60405180910390f35b610160610102366004610f31565b6002602081905260009182526040909120805460018201549282015460038301546004840154600585015460068601546007909601546001600160a01b03958616979095169593949293919290919060ff8082169161010090041689565b604080516001600160a01b039a8b1681529990981660208a0152968801959095526060870193909352608086019190915260a085015260c0840152151560e08301521515610100820152610120016100eb565b6100cc610505565b6100cc6101c9366004610f4a565b610519565b6000546040516001600160a01b0390911681526020016100eb565b6101fc6101f7366004610fbd565b6108f9565b6040516100eb9190610fd8565b610160610217366004610f31565b6000908152600260208190526040909120805460018201549282015460038301546004840154600585015460068601546007909601546001600160a01b0395861698959097169693959294919390929160ff8083169261010090041690565b6100e160045481565b6100e161028d366004610f31565b610965565b6100cc6102a0366004610edb565b610a16565b6100cc6102b3366004610fbd565b610c1f565b6102c0610c5d565b600082815260026020526040902080546001600160a01b0316331461032c5760405162461bcd60e51b815260206004820152601c60248201527f4f6e6c792062656e65666963696172792063616e2072656c656173650000000060448201526064015b60405180910390fd5b6007810154610100900460ff16156103865760405162461bcd60e51b815260206004820152601860248201527f56657374696e6720686173206265656e207265766f6b656400000000000000006044820152606401610323565b604080516101208101825282546001600160a01b03908116825260018401541660208201526002830154918101919091526003820154606082015260048201546080820152600582015460a0820152600682015460c0820152600782015460ff808216151560e0840152610100918290041615159082015260009061040a90610c87565b9050600081116104505760405162461bcd60e51b81526020600482015260116024820152704e6f20746f6b656e73206172652064756560781b6044820152606401610323565b808260030160008282546104649190611032565b90915550508154610482906001600160a01b03858116911683610d2e565b81546040518281526001600160a01b039091169085907f62eb4bd96d9a7a66875a9f46f9f9d8bf6cfed3fe0578671b752301427d2a4f669060200160405180910390a350506104d060018055565b5050565b600360205281600052604060002081815481106104f057600080fd5b90600052602060002001600091509150505481565b61050d610d92565b6105176000610dbf565b565b610521610d92565b6001600160a01b0387166105825760405162461bcd60e51b815260206004820152602260248201527f42656e65666963696172792063616e6e6f74206265207a65726f206164647265604482015261737360f01b6064820152608401610323565b600085116105d25760405162461bcd60e51b815260206004820152601d60248201527f416d6f756e74206d7573742062652067726561746572207468616e20300000006044820152606401610323565b600082116106225760405162461bcd60e51b815260206004820152601f60248201527f4475726174696f6e206d7573742062652067726561746572207468616e2030006044820152606401610323565b818311156106875760405162461bcd60e51b815260206004820152602c60248201527f436c696666206d757374206265206c657373207468616e206f7220657175616c60448201526b103a3790323ab930ba34b7b760a11b6064820152608401610323565b6004546040516bffffffffffffffffffffffff1960608a811b8216602084015289901b1660348201526048810187905260688101869052608881019190915260009060a80160408051601f19818403018152919052805160209091012090506106fb6001600160a01b038816333089610e0f565b604051806101200160405280896001600160a01b03168152602001886001600160a01b03168152602001878152602001600081526020018681526020018581526020018481526020018315158152602001600015158152506002600083815260200190815260200160002060008201518160000160006101000a8154816001600160a01b0302191690836001600160a01b0316021790555060208201518160010160006101000a8154816001600160a01b0302191690836001600160a01b0316021790555060408201518160020155606082015181600301556080820151816004015560a0820151816005015560c0820151816006015560e08201518160070160006101000a81548160ff0219169083151502179055506101008201518160070160016101000a81548160ff02191690831515021790555090505060036000896001600160a01b03166001600160a01b03168152602001908152602001600020819080600181540180825580915050600190039060005260206000200160009091909190915055600460008154809291906108959061104b565b90915550506040805187815260208101879052908101859052606081018490526001600160a01b0389169082907f20e073876475840baaceb1b45e9a0610fee31c7d4f57974aae4d946f100aaff69060800160405180910390a35050505050505050565b6001600160a01b03811660009081526003602090815260409182902080548351818402810184019094528084526060939283018282801561095957602002820191906000526020600020905b815481526020019060010190808311610945575b50505050509050919050565b60008181526002602052604081206007810154610100900460ff161561098e5750600092915050565b604080516101208101825282546001600160a01b03908116825260018401541660208201526002830154918101919091526003820154606082015260048201546080820152600582015460a0820152600682015460c0820152600782015460ff808216151560e08401526101009182900416151590820152610a0f90610c87565b9392505050565b610a1e610d92565b6000828152600260205260409020600781015460ff16610a805760405162461bcd60e51b815260206004820152601860248201527f56657374696e67206973206e6f74207265766f6361626c6500000000000000006044820152606401610323565b6007810154610100900460ff1615610ada5760405162461bcd60e51b815260206004820152601760248201527f56657374696e6720616c7265616479207265766f6b65640000000000000000006044820152606401610323565b604080516101208101825282546001600160a01b03908116825260018401541660208201526002830154918101919091526003820154606082015260048201546080820152600582015460a0820152600682015460c0820152600782015460ff808216151560e08401526101009182900416151590820152600090610b5e90610c87565b90508015610b985780826003016000828254610b7a9190611032565b90915550508154610b98906001600160a01b03858116911683610d2e565b600082600301548360020154610bae9190611064565b90508015610bdc57610bdc610bcb6000546001600160a01b031690565b6001600160a01b0386169083610d2e565b60078301805461ff00191661010017905560405185907f8813e00e6b3387d6d203de4d34d29edffcbd1905c4338ca2faf29a673f9769f690600090a25050505050565b610c27610d92565b6001600160a01b038116610c5157604051631e4fbdf760e01b815260006004820152602401610323565b610c5a81610dbf565b50565b600260015403610c8057604051633ee5aeb560e01b815260040160405180910390fd5b6002600155565b60a081015160808201516000914291610ca09190611032565b811015610cb05750600092915050565b8260c001518360800151610cc49190611032565b8110610cde5782606001518360400151610a0f9190611064565b6000836080015182610cf09190611064565b905060008460c00151828660400151610d099190611077565b610d13919061108e565b9050846060015181610d259190611064565b95945050505050565b6040516001600160a01b03838116602483015260448201839052610d8d91859182169063a9059cbb906064015b604051602081830303815290604052915060e01b6020820180516001600160e01b038381831617835250505050610e4e565b505050565b6000546001600160a01b031633146105175760405163118cdaa760e01b8152336004820152602401610323565b600080546001600160a01b038381166001600160a01b0319831681178455604051919092169283917f8be0079c531659141344cd1fd0a4f28419497f9722a3daafe3b4186f6b6457e09190a35050565b6040516001600160a01b038481166024830152838116604483015260648201839052610e489186918216906323b872dd90608401610d5b565b50505050565b600080602060008451602086016000885af180610e71576040513d6000823e3d81fd5b50506000513d91508115610e89578060011415610e96565b6001600160a01b0384163b155b15610e4857604051635274afe760e01b81526001600160a01b0385166004820152602401610323565b80356001600160a01b0381168114610ed657600080fd5b919050565b60008060408385031215610eee57600080fd5b82359150610efe60208401610ebf565b90509250929050565b60008060408385031215610f1a57600080fd5b610f2383610ebf565b946020939093013593505050565b600060208284031215610f4357600080fd5b5035919050565b600080600080600080600060e0888a031215610f6557600080fd5b610f6e88610ebf565b9650610f7c60208901610ebf565b955060408801359450606088013593506080880135925060a0880135915060c08801358015158114610fad57600080fd5b8091505092959891949750929550565b600060208284031215610fcf57600080fd5b610a0f82610ebf565b6020808252825182820181905260009190848201906040850190845b8181101561101057835183529284019291840191600101610ff4565b50909695505050505050565b634e487b7160e01b600052601160045260246000fd5b808201808211156110455761104561101c565b92915050565b60006001820161105d5761105d61101c565b5060010190565b818103818111156110455761104561101c565b80820281158282048414176110455761104561101c565b6000826110ab57634e487b7160e01b600052601260045260246000fd5b50049056fea2646970667358221220e93e42fe76ffd29477ba73e402e79640d04c42fee75c788b5495a4c5b77610f664736f6c63430008140033",
  "linkReferences": {},
  "deployedLinkReferences": {}
}