{
  "_format": "hh-sol-artifact-1",
  "contractName": "TokenVesting",
  "sourceName": "contracts/TokenVesting.sol",
  "abi": [
    {
      "inputs": [],
      "stateMutability": "nonpayable",
      "type": "constructor"
    },
    {
      "inputs": [
        {
          "internalType": "address",
          "name": "owner",
          "type": "address"
        }
      ],
      "name": "OwnableInvalidOwner",
      "type": "error"
    },
    {
      "inputs": [
        {
          "internalType": "address",
          "name": "account",
          "type": "address"
        }
      ],
      "name": "OwnableUnauthorizedAccount",
      "type": "error"
    },
    {
      "inputs": [],
      "name": "ReentrancyGuardReentrantCall",
      "type": "error"
    },
    {
      "inputs": [
        {
          "internalType": "address",
          "name": "token",
          "type": "address"
        }
      ],
      "name": "SafeERC20FailedOperation",
      "type": "error"
    },
    {
      "anonymous": false,
      "inputs": [
        {
          "indexed": true,
          "internalType": "address",
          "name": "previousOwner",
          "type": "address"
        },
        {
          "indexed": true,
          "internalType": "address",
          "name": "newOwner",
          "type": "address"
        }
      ],
      "name": "OwnershipTransferred",
      "type": "event"
    },
    {
      "anonymous": false,
      "inputs": [
        {
          "indexed": true,
          "internalType": "bytes32",
          "name": "vestingId",
          "type": "bytes32"
        },
        {
          "indexed": true,
          "internalType": "address",
          "name": "beneficiary",
          "type": "address"
        },
        {
          "indexed": false,
          "internalType": "uint256",
          "name": "amount",
          "type": "uint256"
        }
      ],
      "name": "TokensReleased",
      "type": "event"
    },
    {
      "anonymous": false,
      "inputs": [
        {
          "indexed": true,
          "internalType": "bytes32",
          "name": "vestingId",
          "type": "bytes32"
        }
      ],
      "name": "VestingRevoked",
      "type": "event"
    },
    {
      "anonymous": false,
      "inputs": [
        {
          "indexed": true,
          "internalType": "bytes32",
          "name": "vestingId",
          "type": "bytes32"
        },
        {
          "indexed": true,
          "internalType": "address",
          "name": "beneficiary",
          "type": "address"
        },
        {
          "indexed": false,
          "internalType": "uint256",
          "name": "amount",
          "type": "uint256"
        },
        {
          "indexed": false,
          "internalType": "uint256",
          "name": "startTime",
          "type": "uint256"
        },
        {
          "indexed": false,
          "internalType": "uint256",
          "name": "cliff",
          "type": "uint256"
        },
        {
          "indexed": false,
          "internalType": "uint256",
          "name": "duration",
          "type": "uint256"
        }
      ],
      "name": "VestingScheduleCreated",
      "type": "event"
    },
    {
      "inputs": [
        {
          "internalType": "address",
          "name": "",
          "type": "address"
        },
        {
          "internalType": "uint256",
          "name": "",
          "type": "uint256"
        }
      ],
      "name": "beneficiarySchedules",
      "outputs": [
        {
          "internalType": "bytes32",
          "name": "",
          "type": "bytes32"
        }
      ],
      "stateMutability": "view",
      "type": "function"
    },
    {
      "inputs": [
        {
          "internalType": "bytes32",
          "name": "vestingId",
          "type": "bytes32"
        }
      ],
      "name": "computeReleasableAmount",
      "outputs": [
        {
          "internalType": "uint256",
          "name": "",
          "type": "uint256"
        }
      ],
      "stateMutability": "view",
      "type": "function"
    },
    {
      "inputs": [
        {
          "internalType": "address",
          "name": "_beneficiary",
          "type": "address"
        },
        {
          "internalType": "address",
          "name": "_token",
          "type": "address"
        },
        {
          "internalType": "uint256",
          "name": "_amount",
          "type": "uint256"
        },
        {
          "internalType": "uint256",
          "name": "_startTime",
          "type": "uint256"
        },
        {
          "internalType": "uint256",
          "name": "_cliff",
          "type": "uint256"
        },
        {
          "internalType": "uint256",
          "name": "_duration",
          "type": "uint256"
        },
        {
          "internalType": "bool",
          "name": "_revocable",
          "type": "bool"
        }
      ],
      "name": "createVestingSchedule",
      "outputs": [],
      "stateMutability": "nonpayable",
      "type": "function"
    },
    {
      "inputs": [
        {
          "internalType": "address",
          "name": "beneficiary",
          "type": "address"
        }
      ],
      "name": "getBeneficiarySchedules",
      "outputs": [
        {
          "internalType": "bytes32[]",
          "name": "",
          "type": "bytes32[]"
        }
      ],
      "stateMutability": "view",
      "type": "function"
    },
    {
      "inputs": [
        {
          "internalType": "bytes32",
          "name": "vestingId",
          "type": "bytes32"
        }
      ],
      "name": "getVestingSchedule",
      "outputs": [
        {
          "internalType": "address",
          "name": "beneficiary",
          "type": "address"
        },
        {
          "internalType": "uint256",
          "name": "totalAmount",
          "type": "uint256"
        },
        {
          "internalType": "uint256",
          "name": "released",
          "type": "uint256"
        },
        {
          "internalType": "uint256",
          "name": "startTime",
          "type": "uint256"
        },
        {
          "internalType": "uint256",
          "name": "cliff",
          "type": "uint256"
        },
        {
          "internalType": "uint256",
          "name": "duration",
          "type": "uint256"
        },
        {
          "internalType": "bool",
          "name": "revocable",
          "type": "bool"
        },
        {
          "internalType": "bool",
          "name": "revoked",
          "type": "bool"
        }
      ],
      "stateMutability": "view",
      "type": "function"
    },
    {
      "inputs": [],
      "name": "owner",
      "outputs": [
        {
          "internalType": "address",
          "name": "",
          "type": "address"
        }
      ],
      "stateMutability": "view",
      "type": "function"
    },
    {
      "inputs": [
        {
          "internalType": "bytes32",
          "name": "vestingId",
          "type": "bytes32"
        },
        {
          "internalType": "address",
          "name": "token",
          "type": "address"
        }
      ],
      "name": "release",
      "outputs": [],
      "stateMutability": "nonpayable",
      "type": "function"
    },
    {
      "inputs": [],
      "name": "renounceOwnership",
      "outputs": [],
      "stateMutability": "nonpayable",
      "type": "function"
    },
    {
      "inputs": [
        {
          "internalType": "bytes32",
          "name": "vestingId",
          "type": "bytes32"
        },
        {
          "internalType": "address",
          "name": "token",
          "type": "address"
        }
      ],
      "name": "revoke",
      "outputs": [],
      "stateMutability": "nonpayable",
      "type": "function"
    },
    {
      "inputs": [
        {
          "internalType": "address",
          "name": "newOwner",
          "type": "address"
        }
      ],
      "name": "transferOwnership",
      "outputs": [],
      "stateMutability": "nonpayable",
      "type": "function"
    },
    {
      "inputs": [
        {
          "internalType": "bytes32",
          "name": "",
          "type": "bytes32"
        }
      ],
      "name": "vestingSchedules",
      "outputs": [
        {
          "internalType": "address",
          "name": "beneficiary",
          "type": "address"
        },
        {
          "internalType": "uint256",
          "name": "totalAmount",
          "type": "uint256"
        },
        {
          "internalType": "uint256",
          "name": "released",
          "type": "uint256"
        },
        {
          "internalType": "uint256",
          "name": "startTime",
          "type": "uint256"
        },
        {
          "internalType": "uint256",
          "name": "cliff",
          "type": "uint256"
        },
        {
          "internalType": "uint256",
          "name": "duration",
          "type": "uint256"
        },
        {
          "internalType": "bool",
          "name": "revocable",
          "type": "bool"
        },
        {
          "internalType": "bool",
          "name": "revoked",
          "type": "bool"
        }
      ],
      "stateMutability": "view",
      "type": "function"
    },
    {
      "inputs": [],
      "name": "vestingSchedulesCount",
      "outputs": [
        {
          "internalType": "uint256",
          "name": "",
          "type": "uint256"
        }
      ],
      "stateMutability": "view",
      "type": "function"
    }
  ],
  "bytecode": "0x608060405234801561001057600080fd5b50338061003757604051631e4fbdf760e01b81526000600482015260240160405180910390fd5b6100408161004a565b506001805561009a565b600080546001600160a01b038381166001600160a01b0319831681178455604051919092169283917f8be0079c531659141344cd1fd0a4f28419497f9722a3daafe3b4186f6b6457e09190a35050565b610ff7806100a96000396000f3fe608060405234801561001057600080fd5b50600436106100b45760003560e01c80638fdd511e116100715780638fdd511e146101d45780639ef346b4146101f4578063c741d92f14610254578063ea1bb3d51461025d578063efd8871a14610270578063f2fde38b1461028357600080fd5b80631bbdcfd3146100b957806346ca4241146100ce57806360417887146100f4578063715018a61461019e5780637386d3ad146101a65780638da5cb5b146101b9575b600080fd5b6100cc6100c7366004610dec565b610296565b005b6100e16100dc366004610e18565b6104a5565b6040519081526020015b60405180910390f35b610155610102366004610e42565b600260208190526000918252604090912080546001820154928201546003830154600484015460058501546006909501546001600160a01b03909416959492939192909160ff8082169161010090041688565b604080516001600160a01b0390991689526020890197909752958701949094526060860192909252608085015260a0840152151560c0830152151560e0820152610100016100eb565b6100cc6104d6565b6100cc6101b4366004610e5b565b6104ea565b6000546040516001600160a01b0390911681526020016100eb565b6101e76101e2366004610ece565b610824565b6040516100eb9190610ee9565b610155610202366004610e42565b600090815260026020819052604090912080546001820154928201546003830154600484015460058501546006909501546001600160a01b039094169692949193909260ff8083169261010090041690565b6100e160045481565b6100e161026b366004610e42565b610890565b6100cc61027e366004610dec565b610934565b6100cc610291366004610ece565b610b30565b61029e610b6e565b600082815260026020526040902080546001600160a01b0316331461030a5760405162461bcd60e51b815260206004820152601c60248201527f4f6e6c792062656e65666963696172792063616e2072656c656173650000000060448201526064015b60405180910390fd5b6006810154610100900460ff16156103645760405162461bcd60e51b815260206004820152601860248201527f56657374696e6720686173206265656e207265766f6b656400000000000000006044820152606401610301565b60408051610100808201835283546001600160a01b03168252600184015460208301526002840154928201929092526003830154606082015260048301546080820152600583015460a0820152600683015460ff808216151560c0840152929004909116151560e08201526000906103db90610b98565b9050600081116104215760405162461bcd60e51b81526020600482015260116024820152704e6f20746f6b656e73206172652064756560781b6044820152606401610301565b808260020160008282546104359190610f43565b90915550508154610453906001600160a01b03858116911683610c3f565b81546040518281526001600160a01b039091169085907f62eb4bd96d9a7a66875a9f46f9f9d8bf6cfed3fe0578671b752301427d2a4f669060200160405180910390a350506104a160018055565b5050565b600360205281600052604060002081815481106104c157600080fd5b90600052602060002001600091509150505481565b6104de610ca3565b6104e86000610cd0565b565b6104f2610ca3565b6001600160a01b0387166105535760405162461bcd60e51b815260206004820152602260248201527f42656e65666963696172792063616e6e6f74206265207a65726f206164647265604482015261737360f01b6064820152608401610301565b600085116105a35760405162461bcd60e51b815260206004820152601d60248201527f416d6f756e74206d7573742062652067726561746572207468616e20300000006044820152606401610301565b600082116105f35760405162461bcd60e51b815260206004820152601f60248201527f4475726174696f6e206d7573742062652067726561746572207468616e2030006044820152606401610301565b818311156106585760405162461bcd60e51b815260206004820152602c60248201527f436c696666206d757374206265206c657373207468616e206f7220657175616c60448201526b103a3790323ab930ba34b7b760a11b6064820152608401610301565b6004546040516bffffffffffffffffffffffff1960608a811b8216602084015289901b1660348201526048810187905260688101869052608881019190915260009060a80160408051601f19818403018152919052805160209091012090506106cc6001600160a01b038816333089610d20565b6040805161010080820183526001600160a01b038b811680845260208085018c81526000868801818152606088018e8152608089018e815260a08a018e81528d151560c08c0190815260e08c018681528e87526002808a528e88209d518e546001600160a01b0319169c169b909b178d5596516001808e01919091559451998c019990995591516003808c019190915590516004808c0191909155915160058b0155965160069099018054945161ffff1990951699151561ff00191699909917931515909702929092179096559185529182529383208054948501815583528220909201839055815491906107c083610f5c565b90915550506040805187815260208101879052908101859052606081018490526001600160a01b0389169082907f20e073876475840baaceb1b45e9a0610fee31c7d4f57974aae4d946f100aaff69060800160405180910390a35050505050505050565b6001600160a01b03811660009081526003602090815260409182902080548351818402810184019094528084526060939283018282801561088457602002820191906000526020600020905b815481526020019060010190808311610870575b50505050509050919050565b60008181526002602052604081206006810154610100900460ff16156108b95750600092915050565b60408051610100808201835283546001600160a01b03168252600184015460208301526002840154928201929092526003830154606082015260048301546080820152600583015460a0820152600683015460ff808216151560c0840152929004909116151560e082015261092d90610b98565b9392505050565b61093c610ca3565b6000828152600260205260409020600681015460ff1661099e5760405162461bcd60e51b815260206004820152601860248201527f56657374696e67206973206e6f74207265766f6361626c6500000000000000006044820152606401610301565b6006810154610100900460ff16156109f85760405162461bcd60e51b815260206004820152601760248201527f56657374696e6720616c7265616479207265766f6b65640000000000000000006044820152606401610301565b60408051610100808201835283546001600160a01b03168252600184015460208301526002840154928201929092526003830154606082015260048301546080820152600583015460a0820152600683015460ff808216151560c0840152929004909116151560e0820152600090610a6f90610b98565b90508015610aa95780826002016000828254610a8b9190610f43565b90915550508154610aa9906001600160a01b03858116911683610c3f565b600082600201548360010154610abf9190610f75565b90508015610aed57610aed610adc6000546001600160a01b031690565b6001600160a01b0386169083610c3f565b60068301805461ff00191661010017905560405185907f8813e00e6b3387d6d203de4d34d29edffcbd1905c4338ca2faf29a673f9769f690600090a25050505050565b610b38610ca3565b6001600160a01b038116610b6257604051631e4fbdf760e01b815260006004820152602401610301565b610b6b81610cd0565b50565b600260015403610b9157604051633ee5aeb560e01b815260040160405180910390fd5b6002600155565b608081015160608201516000914291610bb19190610f43565b811015610bc15750600092915050565b8260a001518360600151610bd59190610f43565b8110610bef578260400151836020015161092d9190610f75565b6000836060015182610c019190610f75565b905060008460a00151828660200151610c1a9190610f88565b610c249190610f9f565b9050846040015181610c369190610f75565b95945050505050565b6040516001600160a01b03838116602483015260448201839052610c9e91859182169063a9059cbb906064015b604051602081830303815290604052915060e01b6020820180516001600160e01b038381831617835250505050610d5f565b505050565b6000546001600160a01b031633146104e85760405163118cdaa760e01b8152336004820152602401610301565b600080546001600160a01b038381166001600160a01b0319831681178455604051919092169283917f8be0079c531659141344cd1fd0a4f28419497f9722a3daafe3b4186f6b6457e09190a35050565b6040516001600160a01b038481166024830152838116604483015260648201839052610d599186918216906323b872dd90608401610c6c565b50505050565b600080602060008451602086016000885af180610d82576040513d6000823e3d81fd5b50506000513d91508115610d9a578060011415610da7565b6001600160a01b0384163b155b15610d5957604051635274afe760e01b81526001600160a01b0385166004820152602401610301565b80356001600160a01b0381168114610de757600080fd5b919050565b60008060408385031215610dff57600080fd5b82359150610e0f60208401610dd0565b90509250929050565b60008060408385031215610e2b57600080fd5b610e3483610dd0565b946020939093013593505050565b600060208284031215610e5457600080fd5b5035919050565b600080600080600080600060e0888a031215610e7657600080fd5b610e7f88610dd0565b9650610e8d60208901610dd0565b955060408801359450606088013593506080880135925060a0880135915060c08801358015158114610ebe57600080fd5b8091505092959891949750929550565b600060208284031215610ee057600080fd5b61092d82610dd0565b6020808252825182820181905260009190848201906040850190845b81811015610f2157835183529284019291840191600101610f05565b50909695505050505050565b634e487b7160e01b600052601160045260246000fd5b80820180821115610f5657610f56610f2d565b92915050565b600060018201610f6e57610f6e610f2d565b5060010190565b81810381811115610f5657610f56610f2d565b8082028115828204841417610f5657610f56610f2d565b600082610fbc57634e487b7160e01b600052601260045260246000fd5b50049056fea26469706673582212209797100e16e3eeabf06f149bdee822231fd3a0725c991208a2c23f9d8bc2954764736f6c63430008140033",
  "linkReferences": {},
  "deployedLinkReferences": {}
}